:100000000C9471000C94D7040C94B0040C949900D7
:100010000C9499000C9499000C9499000C949900FC
:100020000C9499000C94FE040C9499000C94990083
:100030000C9499000C9499000C9499000C949900DC
:100040000C9466040C9499000C9499000C949900FB
:100050000C9499000C9499000C9499000C949900BC
:100060000C9499000C94990005A84CCDB2D44EB9CB
:100070003836A9020C50B9918688083CA6AAAA2A4B
:10008000BE000000803F00000000240027002A007E
:1000900000000000250028002B00000000002300C5
:1000A00026002900040404040404040402020202D9
:1000B000020203030303030301020408102040802B
:1000C00001020408102001020408102000000008AA
:1000D000000201000003040700000000000000000F
:1000E000710911241FBECFEFD8E0DEBFCDBF11E0F4
:1000F000A0E0B1E0E0E6F9E102C005900D92A2387F
:10010000B107D9F722E0A2E8B1E001C01D92AA33FD
:10011000B207E1F710E0C1E7D0E004C02197FE018B
:100120000E94A80CC037D107C9F70E94D6050C94CD
:10013000AE0C0C94000080E480937C0080917A00E7
:10014000806480937A0080917A0086FDFCCF809154
:100150007800909179000895AF92BF92CF92DF928C
:10016000EF92FF920F931F93CF93DF936C017B016C
:100170008B01040F151FEB015E01AE18BF08C017FD
:10018000D10759F06991D601ED91FC910190F08170
:10019000E02DC6010995892B79F7C501DF91CF9133
:1001A0001F910F91FF90EF90DF90CF90BF90AF9095
:1001B0000895833081F028F4813099F08230A9F0DD
:1001C00008958730A9F08830C9F08430B1F4809167
:1001D00080008F7D03C0809180008F7780938000A6
:1001E000089584B58F7784BD089584B58F7DFBCF46
:1001F0008091B0008F778093B00008958091B00017
:100200008F7DF9CF1F93CF93DF93282F30E0F90133
:10021000E453FF4F8491F901E854FF4FD491F90161
:10022000EC55FF4FC491CC23A9F0162F81110E94E9
:10023000D900EC2FF0E0EE0FFF1FE057FF4FA59124
:10024000B4918FB7F894EC91111108C0D095DE23CA
:10025000DC938FBFDF91CF911F910895DE2BF8CFF4
:10026000CF93DF9390E0FC01E854FF4F24918C552D
:100270009F4FFC0184918823D1F090E0880F991F53
:10028000FC01EA57FF4FA591B491FC01E057FF4FE5
:10029000C591D491623071F49FB7F8943C91822F4C
:1002A000809583238C93E8812E2B28839FBFDF9139
:1002B000CF9108958FB7F894EC912E2B2C938FBF8C
:1002C000F6CF3FB7F89480910F0290911002A09161
:1002D0001102B091120226B5A89B05C02F3F19F05C
:1002E0000196A11DB11D3FBFBA2FA92F982F8827B6
:1002F000BC01CD01620F711D811D911D42E0660F91
:10030000771F881F991F4A95D1F708958F929F9262
:10031000AF92BF92CF92DF92EF92FF924B015C01BE
:100320000E9461016B017C010E9461016C197D09D1
:100330008E099F09683E734081059105A8F321E06D
:10034000821A9108A108B10888EEC80E83E0D81E71
:10035000E11CF11C81149104A104B10429F7FF9060
:10036000EF90DF90CF90BF90AF909F908F900895C7
:100370000895089590E080E008958F929F92AF9243
:10038000BF920F931F93CF93DF93CDB7DEB7A197A3
:100390000FB6F894DEBF0FBECDBF19A2423008F4ED
:1003A0004AE08E010F5D1F4F842E912CB12CA12CA1
:1003B000A50194010E94AE09E62FB901CA01EA30F5
:1003C00044F5E05DD801EE938D01232B242B252BE2
:1003D00079F790E080E0109769F0FD01019000202E
:1003E000E9F73197AF014A1B5B0BBD0182E292E056
:1003F0000E94AC00A1960FB6F894DEBF0FBECDBF31
:10040000DF91CF911F910F91BF90AF909F908F90F0
:100410000895E95CD7CFFC0101900020E9F73197FE
:10042000AF01481B590BBC0182E292E00C94AC0076
:10043000CF93DF93EC0160E08E810E94020161E0C6
:100440008E810E94020160E08E810E9402018BE891
:1004500091E00197F1F7DF91CF910895CF92DF926C
:10046000EF92FF920F931F93CF93DF936C017C0168
:1004700087E0E80EF11CD0E0C0E0062F10E0B801E4
:100480000C2E02C0759567950A94E2F76170F7012A
:1004900081917F010E9402012196C430D10579F734
:1004A000C601DF91CF911F910F91FF90EF90DF90E8
:1004B000CF900C941802CF92DF92EF92FF920F939D
:1004C0001F93CF93DF93EC01F62E642F8C810E9453
:1004D00002018D818F3F19F060E00E9402010F2D13
:1004E00010E08F8584FF25C06E0187E0C80ED11C07
:1004F000F12CE12CB8010E2C02C0759567950A9479
:10050000E2F76170F60181916F010E940201FFEF35
:10051000EF1AFF0A88E0E816F10461F7CE01DF91D7
:10052000CF911F910F91FF90EF90DF90CF900C949F
:100530001802B80184E0759567958A95E1F7CE01B8
:100540000E942E026F2DCE01DF91CF911F910F914E
:10055000FF90EF90DF90CF900C942E0240E0682F38
:1005600082E292E00C945B0290913502691710F0E0
:100570006FEF690FE62FF0E0EE5DFD4F9489890F74
:1005800080680C94AE0281E00E94AE028BE39FE192
:100590000197F1F7089560E088E00E940201F89465
:1005A000E0E7F0E080818E7F808361E086E00E945A
:1005B000020160E085E00E94020161E089E00E94A2
:1005C000020160E08AE00E94020161E08BE00E948B
:1005D000020160E083E00E9402010E94C30260E029
:1005E00080E00E94B40281E491E00E940B0261E08D
:1005F00080E00E94B4028AE491E00E940B0268E865
:1006000073E180E090E00E94860160E080E00E945B
:10061000B40281E491E00E940B0261E080E00E945C
:10062000B40283E591E00E940B0268E873E180E088
:1006300090E00E948601F0E0E0E00994CF93DF9320
:10064000823029F490913102986090933102809326
:1006500035021092360280E48093370280E1809365
:10066000380280E58093390261E0809126020E9481
:100670003001809127028F3F19F061E00E94300124
:1006800061E0809128020E943001C2E2D2E09E0126
:10069000225232408091310284FD0BC084E090E010
:1006A00021962817390744F461E08E810E943001B9
:1006B000EECF88E090E0F4CF8BE39DE00197F1F777
:1006C00060E0809126020E94020160E08091280291
:1006D0000E940201809127028F3F19F060E00E9482
:1006E00002018091310284FD34C063E082E292E035
:1006F0000E942E02CBE4D6E4CE010197F1F763E02D
:1007000082E292E00E942E022197F1F763E082E2FA
:1007100092E00E942E0283E592E00197F1F762E0F9
:1007200082E292E00E942E028091310280620E9459
:10073000AE0284E0809332028CE00E94AE020E94FE
:10074000C30282E08093330286E0DF91CF910C9464
:10075000AE0280620E94AE028BE496E40197F1F74C
:100760008091310280620E94AE0283E592E001979F
:10077000F1F78091310280620E94AE02D5CF41E054
:100780000E945B0281E090E008950F931F93CF9346
:10079000DF938B0128E0829FC001112480640E94B6
:1007A000AE02E801085F1F4F699182E292E00E9469
:1007B000BF03C017D107C1F7DF91CF911F910F91F0
:1007C0000895CF92DF92EF92FF926B017C0141E09E
:1007D0006DE282E292E00E945B0266277727CB01FE
:1007E0006C197D098E099F094AE00E94BD0101969E
:1007F000FF90EF90DF90CF9008954F925F926F92AD
:100800007F928F929F92AF92BF92CF92DF92EF92A0
:10081000FF920F931F93CF93DF938D3708F08CE7F0
:1008200044244394480E0AE811E0D0E0C0E0C82E0A
:10083000880FDD08EE08FF08042C000C5508660838
:100840007708BE010D2E000C880B990B0E94EF0A51
:100850002BED3FE049E450E40E94800B20E030E0C3
:1008600040E85CE30E94800B0E94ED0B4B015C01B1
:10087000C701B6010E94EF0AA50194010E94800BF6
:100880004B015C01C301B2010E94EF0A9B01AC0164
:10089000C501B4010E94E0090E94BE0AF8016193FB
:1008A0008F012196C038D10561F6DF91CF911F915C
:1008B0000F91FF90EF90DF90CF90BF90AF909F90FF
:1008C0008F907F906F905F904F9008951F920F923E
:1008D0000FB60F9211242F933F938F939F93AF9353
:1008E000BF9380910B0290910C02A0910D02B091E8
:1008F0000E0230910A0223E0230F2D3758F501969E
:10090000A11DB11D20930A0280930B0290930C024B
:10091000A0930D02B0930E0280910F0290911002ED
:10092000A0911102B09112020196A11DB11D8093F8
:100930000F0290931002A0931102B0931202BF9184
:10094000AF919F918F913F912F910F900FBE0F907C
:100950001F90189526E8230F0296A11DB11DD2CF36
:100960001F920F920FB60F9211242F933F934F9324
:100970005F936F937F938F939F93AF93BF93EF9307
:10098000FF93E0910201F09103010995FF91EF912E
:10099000BF91AF919F918F917F916F915F914F9197
:1009A0003F912F910F900FBE0F901F9018951F929F
:1009B0000F920FB60F9211242F933F934F935F9393
:1009C0006F937F938F939F93AF93BF93EF93FF9317
:1009D000E0910001F09101010995FF91EF91BF9124
:1009E000AF919F918F917F916F915F914F913F91C7
:1009F0002F910F900FBE0F901F9018951F920F927E
:100A00000FB60F9211242F933F934F935F936F93E1
:100A10007F938F939F93AF93BF93CF93EF93FF9366
:100A20008091860190918701A0918801B091890100
:100A3000409118025091190260911A0270911B02A4
:100A4000840F951FA61FB71F80938601909387017F
:100A5000A0938801B09389018091860190918701CC
:100A6000A0918801B091890129E1B695A795979544
:100A700087952A95D1F7809385012091130222232F
:100A800009F47CC0E0E4E80FEF77E0938401805E36
:100A90008F7780938301F0E0E657FE4F808180934B
:100AA00082018B5F87BD8091820188BDE0918501C5
:100AB000F0E0E657FE4F808190E09C012B5F3F4FB6
:100AC000309389002093880090938B0080938A0054
:100AD000E0918301F0E0E657FE4F80818093820130
:100AE0008B5F8093B300809182018093B4008091EA
:100AF0008501803421F461E088E00E940201809148
:100B0000140290911502A0911602B0911702AC0147
:100B1000BD014F5F5F4F6F4F7F4F40931402509363
:100B2000150260931602709317028E3F9140A10543
:100B3000B10591F41092140210921502109216024F
:100B400010921702C09121026C2F8DE00E940201C9
:100B500081E0C827C0932102FF91EF91CF91BF910F
:100B6000AF919F918F917F916F915F914F913F9145
:100B70002F910F900FBE0F901F9018952AE2280F0B
:100B80002F772093840124E5280F2F77209383016A
:100B900086579E4FFC018081809382018B5F87BDC9
:100BA0008091820188BDE091840182CF789484B5E0
:100BB000826084BD84B5816084BD85B5826085BD59
:100BC00085B5816085BD80916E00816080936E00E7
:100BD00010928100809181008260809381008091D9
:100BE000810081608093810080918000816080938A
:100BF00080008091B10084608093B1008091B0004A
:100C000081608093B00080917A00846080937A0044
:100C100080917A00826080937A0080917A0081606E
:100C200080937A0080917A00806880937A00109295
:100C3000C10062E08CE00E94300161E088E00E9427
:100C4000300161E08DE00E94300161E086E00E94A9
:100C5000300161E085E00E94300161E089E00E949E
:100C6000300161E08AE00E94300161E08BE00E9487
:100C7000300161E083E00E94300161E086E00E9483
:100C8000020160E085E00E94020161E089E00E94CB
:100C9000020160E08AE00E94020161E08BE00E94B4
:100CA000020160E083E00E94020162E082E00E94B3
:100CB000300160E088E00E94020160E08DE00E9467
:100CC0000201E8EDF0E08491E4ECF0E0D491E0EB97
:100CD000F0E0C491C1115FC081E08093130282E013
:100CE0000E941E0364E271E080E00E94C5036CE193
:100CF00071E081E00E94C50364E171E082E00E943E
:100D0000C5036CE071E083E00E94C50364E071E01C
:100D100084E00E94C50360E081E00E94B40260E0CC
:100D200082E292E00E94BF0361E082E292E00E94D0
:100D3000BF0361E082E292E00E94BF0362E082E2D0
:100D400092E00E94BF0363E082E292E00E94BF0350
:100D500064E082E292E00E94BF0361E080E00E94D2
:100D6000B40210921E02C0911E02C83020F5EC2F72
:100D7000F0E0E85CFE4F41E0608182E292E00E9498
:100D80005B0268EC70E080E090E00E948601CF5F3B
:100D9000C0931E02E8CF81110E94D900EC2FF0E031
:100DA000EE0FFF1FE656FF4FA591B491EC91ED2396
:100DB00009F492CF94CF68EB7BE080E090E00E9452
:100DC00086010E94C3028091130260E0882309F427
:100DD000D7C185E00E94B4028CE591E00E940B022D
:100DE000CC24CA9443E0D42EE12CF12C0E949B0029
:100DF00022E330E0DC010E94A10CA70196010E94D1
:100E00008F09265F3F4F4F4F5F4F2093200261E0D5
:100E100080E00E94B40284E691E00E940B0268EE3A
:100E200073E080E090E00E94860161E080E00E9433
:100E3000B4028DE691E00E940B0268EE73E080E060
:100E400090E00E948601809120028B3078F261E070
:100E500080E00E94B40286E791E00E940B0285B513
:100E60008E7F85BD85B5826085BD85B58B7F85BD4F
:100E700084B58F7E84BD84B5806284BD84B5806472
:100E800084BD84B5806884BD84B5816084BD84B52B
:100E90008D7F84BD85B5877F85BD809181008E7FE4
:100EA0008093810080918100826080938100809195
:100EB00081008B7F80938100809180008F7E809362
:100EC000800080918000806280938000809180000B
:100ED000806480938000809180008068809380008F
:100EE00080918000816080938000809180008D7F60
:100EF0008093800080918100877F80938100809122
:100F000081008F7E809381008091B1008E7F8093DD
:100F1000B1008091B10082608093B1008091B100F6
:100F20008B7F8093B1008091B0008F7E8093B00062
:100F30008091B00080628093B0008091B0008064A6
:100F40008093B0008091B00080688093B000809161
:100F5000B00081608093B0008091B0008D7F80935D
:100F6000B0008091B100877F8093B10080917000C4
:100F70008E7F809370008FE080931F0280931C020D
:100F80008CE380931D020E94FD0388E296EBAAEF9A
:100F9000B0E08093180290931902A0931A02B093C4
:100FA0001B028091700081608093700081E090E06E
:100FB000A0E0B0E08093140290931502A093160273
:100FC000B09317028091140290911502A09116021D
:100FD000B0911702892B8A2B8B2BA1F781E090E02F
:100FE000A0E0B0E08093140290931502A093160243
:100FF000B09317028091140290911502A0911602ED
:10100000B0911702892B8A2B8B2BA1F78BEC92E0E6
:101010009093010180930001809169008C7F8093FF
:101020006900E89A0E949B0022E330E0DC010E9404
:10103000A10C2FEF33E040E050E00E948F096901DE
:101040007A018AE0C80ED11CE11CF11CC09220027A
:101050006C2D70E090E080E00E94ED0A4B015C0195
:10106000C0911F026C2F70E090E080E00E94EF0AB8
:101070009B01AC01C501B4010E947B0B18160CF05A
:1010800085C0C0931E02CCE7412C512C3201439401
:10109000D0911E026D2F70E090E080E00E94EF0A78
:1010A0009B01AC01C501B4010E947B0B87FD6EC0A2
:1010B000DC5EDD0FD0931D02DC3710F0C0931D0203
:1010C00060E080E00E94B40260911D0270E0605A0E
:1010D0007F4F072E000C880B990B4AE00E94BD0140
:1010E00089E791E00E940B0261E082E00E94B40275
:1010F00060911E0270E090E080E04AE00E94BD0135
:101100008CE791E00E940B02D0911E02D0931C024A
:1011100080911D020E94FD036D2F70E090E080E041
:101120000E94EF0A20E030E040E85FE40E94800B7C
:1011300020E030E145E755E40E944C0A0E94BE0AD7
:10114000609318027093190280931A0290931B0205
:101150004092140250921502609216027092170289
:101160008091140290911502A0911602B09117027D
:10117000892B8A2B8B2BA1F7DF5FD0931E0288CFA0
:1011800085E00E94B40280E691E028CEC0921F0262
:1011900088248A9483E0982EA12CB12C10E000E0E2
:1011A000C0E0D0E0412C512C320143942CE7322E88
:1011B00080912102882309F47FC00E949B0022E3D2
:1011C00030E0DC010E94A10CA50194010E948F096E
:1011D00069017A01EAE0CE0ED11CE11CF11CC0923B
:1011E000200280911F028C1509F466C0C0921E0275
:1011F00084E18C0D880F8C3708F070C080931D023D
:1012000060E080E00E94B40260911D0270E0605ACC
:101210007F4F072E000C880B990B4AE00E94BD01FE
:1012200089E791E00E940B0261E082E00E94B40233
:1012300060911E0270E090E080E04AE00E94BD01F3
:101240008CE791E00E940B02C0921C0280911D026B
:101250000E94FD036C2D70E090E080E00E94EF0A98
:1012600020E030E040E85FE40E94800B20E030E1C5
:1012700045E755E40E944C0A0E94BE0A609318029A
:101280007093190280931A0290931B0240921402E9
:101290005092150260921602709217028091140209
:1012A00090911502A0911602B0911702892B8A2BFA
:1012B0008B2BA1F7C0921F02809120028B3040F44B
:1012C00068EE73E080E090E00E948601F8010995E5
:1012D000209709F46DCF0E9400006ACF30921D0262
:1012E0008FCFE2E2F2E01382128280E391E09183F9
:1012F000808387E084838FEF858384E0868380E129
:10130000878381E1808782E1818783E182871386F9
:10131000148615861686178681E00C941E03052E0A
:1013200097FB1EF400940E94A60957FD07D00E9467
:10133000AE0907FC03D04EF40C94A60950954095D5
:10134000309521953F4F4F4F5F4F08959095809571
:10135000709561957F4F8F4F9F4F0895A1E21A2E90
:10136000AA1BBB1BFD010DC0AA1FBB1FEE1FFF1F49
:10137000A217B307E407F50720F0A21BB30BE40B99
:10138000F50B661F771F881F991F1A9469F76095E0
:101390007095809590959B01AC01BD01CF0108959A
:1013A000A29FB001B39FC001A39F700D811D1124A6
:1013B000911DB29F700D811D1124911D08955058EB
:1013C000BB27AA270E94F7090C94410B0E94330BFC
:1013D00038F00E943A0B20F039F49F3F19F426F4BC
:1013E0000C94300B0EF4E095E7FB0C942A0BE92FDC
:1013F0000E94520B58F3BA176207730784079507C8
:1014000020F079F4A6F50C94740B0EF4E0950B2EF5
:10141000BA2FA02D0B01B90190010C01CA01A00146
:101420001124FF27591B99F0593F50F4503E68F1A1
:101430001A16F040A22F232F342F4427585FF3CFE2
:10144000469537952795A795F0405395C9F77EF4B3
:101450001F16BA0B620B730B840BBAF09150A1F0FC
:10146000FF0FBB1F661F771F881FC2F70EC0BA0F82
:10147000621F731F841F48F4879577956795B7950A
:10148000F7959E3F08F0B0CF9395880F08F0992705
:10149000EE0F9795879508950E94600A0C94410B72
:1014A0000E943A0B58F00E94330B40F029F45F3F42
:1014B00029F00C942A0B51110C94750B0C94300BE1
:1014C0000E94520B68F39923B1F3552391F3951BB6
:1014D000550BBB27AA2762177307840738F09F5F55
:1014E0005F4F220F331F441FAA1FA9F335D00E2EC2
:1014F0003AF0E0E832D091505040E695001CCAF72F
:101500002BD0FE2F29D0660F771F881FBB1F2617F1
:1015100037074807AB07B0E809F0BB0B802DBF01C8
:10152000FF2793585F4F3AF09E3F510578F00C9497
:101530002A0B0C94750B5F3FE4F3983ED4F3869529
:1015400077956795B795F7959F5FC9F7880F911DB8
:101550009695879597F90895E1E0660F771F881FA4
:10156000BB1F621773078407BA0720F0621B730B57
:10157000840BBA0BEE1F88F7E09508950E945A0B72
:1015800088F09F5798F0B92F9927B751B0F0E1F044
:10159000660F771F881F991F1AF0BA95C9F714C0F4
:1015A000B13091F00E94740BB1E008950C94740B6B
:1015B000672F782F8827B85F39F0B93FCCF386952D
:1015C00077956795B395D9F73EF49095809570958A
:1015D00061957F4F8F4F9F4F0895E89409C097FB07
:1015E0003EF490958095709561957F4F8F4F9F4FFA
:1015F0009923A9F0F92F96E9BB279395F69587953E
:1016000077956795B795F111F8CFFAF4BB0F11F400
:1016100060FF1BC06F5F7F4F8F4F9F4F16C08823A7
:1016200011F096E911C0772321F09EE8872F762FDD
:1016300005C0662371F096E8862F70E060E02AF01E
:101640009A95660F771F881FDAF7880F969587950A
:1016500097F9089597F99F6780E870E060E0089532
:101660009FEF80EC089500240A94161617061806BA
:101670000906089500240A94121613061406050696
:101680000895092E0394000C11F4882352F0BB0F27
:1016900040F4BF2B11F460FF04C06F5F7F4F8F4F8A
:1016A0009F4F089557FD9058440F551F59F05F3FC5
:1016B00071F04795880F97FB991F61F09F3F79F074
:1016C00087950895121613061406551FF2CF4695F6
:1016D000F1DF08C0161617061806991FF1CF869578
:1016E0007105610508940895E894BB27662777275C
:1016F000CB0197F908950E94F50B08F48FEF089538
:101700000E94930B0C94410B0E94330B38F00E9403
:101710003A0B20F0952311F00C942A0B0C94300B0B
:1017200011240C94750B0E94520B70F3959FC1F31A
:10173000950F50E0551F629FF001729FBB27F00D7F
:10174000B11D639FAA27F00DB11DAA1F649F6627D4
:10175000B00DA11D661F829F2227B00DA11D621F23
:10176000739FB00DA11D621F839FA00D611D221FDD
:10177000749F3327A00D611D231F849F600D211DC1
:10178000822F762F6A2F11249F5750409AF0F1F044
:1017900088234AF0EE0FFF1FBB1F661F771F881FAD
:1017A00091505040A9F79E3F510580F00C942A0BB0
:1017B0000C94750B5F3FE4F3983ED4F386957795D0
:1017C0006795B795F795E7959F5FC1F7FE2B880F53
:1017D000911D9695879597F908959F930E941B0CEC
:1017E0000F9007FCEE5F0C94440C990F0008550F06
:1017F000AA0BE0E8FEEF16161706E807F907C0F097
:1018000012161306E407F50798F0621B730B840B9E
:10181000950B39F40A2661F0232B242B252B21F478
:1018200008950A2609F4A140A6958FEF811D811D18
:1018300008950C94300B0E945A0BD8F3E894E0E022
:10184000BB279F57F0F02AED3FE049EC06C0EE0FB2
:10185000BB0F661F771F881F28F0B23A6207730715
:10186000840728F0B25A620B730B840BE3959A95A8
:1018700072F7803830F49A95BB0F661F771F881F68
:10188000D2F790480C945A0CEF93E0FF07C0A2EAFD
:101890002AED3FE049EC5FEB0E94F7090E94410B03
:1018A0000F90039401FC9058E8E6F0E00C94660C6D
:1018B0009F3F31F0915020F4879577956795B795C4
:1018C000880F911D9695879597F908959F938F930B
:1018D0007F936F93FF93EF939B01AC010E94800B6A
:1018E000EF91FF910E947A0C2F913F914F915F9160
:1018F0000C94800BDF93CF931F930F93FF92EF9283
:10190000DF927B018C01689406C0DA2EEF010E9401
:10191000930BFE01E894A591259135914591559140
:10192000A6F3EF010E94F709FE019701A801DA94DE
:1019300069F7DF90EF90FF900F911F91CF91DF91AA
:1019400008950E94D009B7FF0895821B930B089554
:10195000EE0FFF1F0590F491E02D0994F894FFCF4E
:10196000B801B801010F06090E01060000021F01AF
:101970001D1319000004040404040600000E111DC8
:10198000151519000012121212121B00000000009F
:10199000BF03AC00BA01B90131322D31322D3230E2
:1019A000004F7665724C6F61640052657365744FC9
:1019B0004646005265736574696E67004A3150008F
:1019C0004A33500021574149542053570053706502
:1019D00065644C6F7700463A0056200020487A2E06
:0219E000000005
:00000001FF
